{
    "contractName": "MyContract",
    "abi": [
        {
            "inputs": [],
            "stateMutability": "nonpayable",
            "type": "constructor"
        },
        {
            "inputs": [],
            "name": "get",
            "outputs": [
                {
                    "internalType": "string",
                    "name": "",
                    "type": "string"
                }
            ],
            "stateMutability": "view",
            "type": "function"
        },
        {
            "inputs": [
                {
                    "internalType": "string",
                    "name": "_value",
                    "type": "string"
                }
            ],
            "name": "set",
            "outputs": [],
            "stateMutability": "nonpayable",
            "type": "function"
        }
    ],
    "bytecode": "608060405234801561001057600080fd5b50604080518082019091526008808252676d792076616c756560c01b602090920191825261004091600091610046565b5061011a565b828054610052906100df565b90600052602060002090601f01602090048101928261007457600085556100ba565b82601f1061008d57805160ff19168380011785556100ba565b828001600101855582156100ba579182015b828111156100ba57825182559160200191906001019061009f565b506100c69291506100ca565b5090565b5b808211156100c657600081556001016100cb565b600181811c908216806100f357607f821691505b6020821081141561011457634e487b7160e01b600052602260045260246000fd5b50919050565b61033d806101296000396000f3fe608060405234801561001057600080fd5b50600436106100365760003560e01c80634ed3885e1461003b5780636d4ce63c14610050575b600080fd5b61004e6100493660046101b0565b61006e565b005b610058610085565b6040516100659190610261565b60405180910390f35b8051610081906000906020840190610117565b5050565b606060008054610094906102b6565b80601f01602080910402602001604051908101604052809291908181526020018280546100c0906102b6565b801561010d5780601f106100e25761010080835404028352916020019161010d565b820191906000526020600020905b8154815290600101906020018083116100f057829003601f168201915b5050505050905090565b828054610123906102b6565b90600052602060002090601f016020900481019282610145576000855561018b565b82601f1061015e57805160ff191683800117855561018b565b8280016001018555821561018b579182015b8281111561018b578251825591602001919060010190610170565b5061019792915061019b565b5090565b5b80821115610197576000815560010161019c565b6000602082840312156101c257600080fd5b813567ffffffffffffffff808211156101da57600080fd5b818401915084601f8301126101ee57600080fd5b813581811115610200576102006102f1565b604051601f8201601f19908116603f01168101908382118183101715610228576102286102f1565b8160405282815287602084870101111561024157600080fd5b826020860160208301376000928101602001929092525095945050505050565b600060208083528351808285015260005b8181101561028e57858101830151858201604001528201610272565b818111156102a0576000604083870101525b50601f01601f1916929092016040019392505050565b600181811c908216806102ca57607f821691505b602082108114156102eb57634e487b7160e01b600052602260045260246000fd5b50919050565b634e487b7160e01b600052604160045260246000fdfea2646970667358221220e9d39b71b85aebd066c6a1017532fbcb7e1200f263f7646632dc98cf19f8389e64736f6c63430008060033",
    "sourcePath": "/Users/vtech/Desktop/sol-f/HelloWorld/contracts/MyContract.sol",
    "compiler": {
        "name": "solc",
        "version": "0.8.6+commit.11564f7e"
    },
    "functionHashes": {
        "get()": "6d4ce63c",
        "set(string)": "4ed3885e"
    },
    "gasEstimates": {
        "creation": {
            "codeDepositCost": "165800",
            "executionCost": "infinite",
            "totalCost": "infinite"
        },
        "external": {
            "get()": "infinite",
            "set(string)": "infinite"
        }
    }
}